:020000041000EA
:1000000000000220355300107F1300104F1F001016
:100010008B2D0010D32F0010AB3B00100000000010
:10002000000000000000000000000000C73E0010BB
:10003000BF41001000000000434500105153001064
:100040007153001071530010715300107153001060
:10005000255200107153001071530010715300109D
:100060007153001071530010715300107153001040
:100070007153001071530010715300107153001030
:100080007153001071530010715300107153001020
:100090007153001071530010715300107153001010
:1000A0007153001071530010715300107153001000
:1000B0009B1D00107153001071530010391D00106A
:1000C000715300104B1D0010715300105D1D001086
:1000D00071530010715300107153001071530010D0
:1000E00071530010715300107153001071530010C0
:1000F0006F1D001071530010811D0010715300100E
:100100002B460010E14600106F4D00107B4D001093
:10011000715300107153001071530010715300108F
:10012000715300107153001071100010E33B001068
:1001300045300010715300107153001071530010BE
:10014000715300107153001071530010715300105F
:10015000715300107153001071530010715300104F
:10016000715300107153001071530010715300103F
:10017000715300107153001071530010715300102F
:1003F000715300107153001071530010FFFFFFFF85
:10040000FFFFFFFFFFFFFFFFFFFFFFFFFEFBFFFF01
:100410000821DFF8B822136843F40023136013683F
:1004200033F48033136000BF00BF00BF00BF00BFC4
:1004300000BF0B46591EDBB2002B16D00306136813
:1004400003D423F40033136002E043F40033136059
:10045000136853F48033136000BF00BF00BF1368FC
:1004600023F4803313604000E3E770470821974A84
:10047000136823F400231360136833F4803313608C
:1004800000BF00BF00BF00BF00BF00BF0B46591E2A
:10049000DBB2002B19D00306136803D423F4003316
:1004A000136002E043F400331360136853F48033A5
:1004B000136000BF00BF00BF00BF00BF00BF1368D4
:1004C00023F4803313604000E0E7704710B5044622
:1004D000A1F15000C0B2FFF7C9FF2046000940F06B
:1004E0001000FFF7C3FF04F00F042046BDE81040E2
:1004F000BCE770B50446002506E02046FFF788FFFC
:10050000761C842EF9DB6D1C082D0CDAA5F1500049
:10051000C0B2FFF7ABFF0120FFF7A8FF1020FFF7E5
:10052000A5FF0026EDE770BD38B5002406E00020E9
:10053000FFF76EFF6D1C842DF9DB641C082C0CDAB0
:10054000A4F15000C0B2FFF791FF0120FFF78EFF2A
:100550001020FFF78BFF0025EDE731BD10B55B4C98
:1005600001231A461021204600F0D1FC01231A462F
:100570001121204600F0CBFC01231A46122120460F
:1005800000F0C5FC01231A461321204600F0BFFCF1
:10059000052000F055FD206840F480302060206880
:1005A00020F480202060322000F04AFD206840F4D2
:1005B00080202060AE20FFF759FF0020FFF756FF94
:1005C0001020FFF753FF4020FFF750FF8120FFF777
:1005D0004DFFCF20FFF74AFFA120FFF747FFC820BC
:1005E000FFF744FFA620FFF741FFA820FFF73EFFDB
:1005F0003F20FFF73BFFD320FFF738FF0020FFF736
:1006000035FFD520FFF732FF8020FFF72FFFD920DD
:10061000FFF72CFFF120FFF729FFDA20FFF726FF75
:100620001220FFF723FFDB20FFF720FF4020FFF71A
:100630001DFF2020FFF71AFF0220FFF717FF8D2074
:10064000FFF714FF1420FFF711FFA420FFF70EFFA0
:10065000A620FFF70BFFAF20FFF708FF0020FFF7F2
:1006600048FF00210846BDE810402FE72DE9F84378
:1006700004460D461646002710E0154909EB4902CD
:1006800001EB4201085CFFF7C3FE08F101085FFAC5
:1006900088F840460628F0DBA41D7F1CFFB2F05D01
:1006A000002810D0A0F120095FFA89F9E4B27F2C6C
:1006B00001DB00246D1C2946C9B22046FFF706FF66
:1006C0004FF00008E3E7BDE8F183000080F00F4041
:1006D000D40C00100821DFF8E425136853F400233C
:1006E000136000BF00BF136833F48033136000BF92
:1006F00000BF0B46591EDBB2002B15D0C307136891
:1007000003D423F40033136002E043F40033136096
:10071000136853F48033136000BF00BF136823F4E1
:10072000803313604008E4E77047000010B40822EB
:10073000DFF888351C6854F400241C6000BF00BF3B
:100740001C6834F480341C6000BF00BF002900D056
:10075000C04311464A1EC9B2002917D001061968C4
:1007600003D431F40031196002E051F40031196012
:1007700000BF00BF196851F48031196000BF00BF8D
:10078000196821F4803119604000E2E710BC70471D
:100790000821DFF82825136833F40023136000BF15
:1007A00000BF136833F48033136000BF00BF0B46F3
:1007B000591EDBB2002B15D00306136803D423F4B3
:1007C0000033136002E043F400331360136853F402
:1007D0008033136000BF00BF136823F480331360BD
:1007E0004000E4E7704710B50446A1F15000C0B2E4
:1007F000FFF7CEFF2046000940F01000FFF7C8FFCA
:1008000004F00F042046BDE81040C1E770B504466F
:10081000002507E000212046FFF788FF761C802E88
:10082000F8DB6D1C082D0CDAA5F15000C0B2FFF703
:10083000AFFF0020FFF7ACFF1020FFF7A9FF002655
:10084000EDE770BD2DE9FC4706460F46144600252E
:1008500012E049460FF27C4208EB480302EB4302E8
:10086000105CFFF763FF0AF1010A5FFA8AFA50464B
:100870000628EEDBB61D6D1CEDB2605D002821D0B0
:10088000A0F120085FFA88F8DFF834040078002827
:1008900009D0C146B9F1010969EB09096FEA0909F3
:1008A0004FEAD97901E04FF00009F6B27F2E01DB63
:1008B00000267F1C3946C9B23046FFF794FF4FF03F
:1008C000000AD2E7BDE8F38770B500252E46A0F1F7
:1008D0002004E4B2DFF8E803007800280ED0002CF2
:1008E0000CD001260AE031460FF2E83204EB440353
:1008F00002EB4302105CFFF719FF6D1CEDB22846B6
:100900000628F0DB70BD0000F8B504460D462E2029
:10091000FFF7DAFF4FF47A70B4FBF0F04FF47A711E
:1009200001FB10416422B1FBF2F61146B4FBF1F277
:1009300001FB12420A21B2FBF1F7B4FBF1F101EB2A
:100940008102A4EB42046D1E032D37D8DFE805F0C9
:100950000208132330342046C0B2FFF7B5FF2DE064
:1009600030373846C0B2FFF7AFFF30342046C0B250
:10097000FFF7AAFF22E030363046C0B2FFF7A4FFEF
:1009800030373846C0B2FFF79FFF30342046C0B240
:10099000FFF79AFF12E03030C0B2FFF795FF303614
:1009A0003046C0B2FFF790FF30373846C0B2FFF78D
:1009B0008BFF30342046C0B2FFF786FF2020BDE811
:1009C000F24081E72DE9F0472DED028B82B006461B
:1009D0000C46B0EE408A1546B5EE408AF1EE10FAAC
:1009E0000BDD18EE100A00F04DFBB64AB64B00F0D6
:1009F0006DFB00F027FC08EE100A21463046BDEEE4
:100A0000C80A10EE106AB8EEC00A38EE400ADFEDF0
:100A1000A90A20EE200ABDEEC00A10EE104AFFF728
:100A2000E2FE9FEDA50AB4EE408AF1EE10FA02D57F
:100A30002D20FFF749FF002E00D5764242F21070BC
:100A400096FBF0F042F2107101FB10614FF47A72E4
:100A500091FBF2F7114696FBF1F201FB1262642161
:100A600092FBF1F996FBF1F201FB12620A2192FB73
:100A7000F1FA96FBF1F101EB8102A6EB420630366A
:100A80000146C9B200291BD04FF005083030C0B272
:100A9000FFF71AFF30373846C0B2FFF715FF09F1EC
:100AA00030094846C0B2FFF70FFF0AF1300A50463E
:100AB000C0B2FFF709FF3046C0B2FFF705FF49E0BB
:100AC0003846C0B2002817D04FF0040830373846F7
:100AD000C0B2FFF7F9FE09F130094846C0B2FFF78E
:100AE000F3FE0AF1300A5046C0B2FFF7EDFE304681
:100AF000C0B2FFF7E9FE2DE04846C0B2002812D090
:100B00004FF0030809F130094846C0B2FFF7DCFE98
:100B10000AF1300A5046C0B2FFF7D6FE3046C0B2E6
:100B2000FFF7D2FE16E05046C0B200280CD04FF0BE
:100B300002080AF1300A5046C0B2FFF7C5FE30463F
:100B4000C0B2FFF7C1FE05E04FF001083046C0B269
:100B5000FFF7BAFE2946200000D54042C9B2A1EBFA
:100B60000802042A3DD8DFE802F0030A1724300007
:100B7000202002B0BDEC028BBDE8F047A4E6A1EB5B
:100B80000801C9B242F2107290FBF2F002B0BDEC63
:100B9000028BBDE8F047B7E6A1EB0801C9B24FF4FC
:100BA0007A7290FBF2F002B0BDEC028BBDE8F04728
:100BB000AAE6A1EB0801C9B2642290FBF2F002B0F0
:100BC000BDEC028BBDE8F0479EE6A1EB0801C9B27F
:100BD0000A2290FBF2F002B0BDEC028BBDE8F047B8
:100BE00092E602B0BDEC028BBDE8F08770B5ADF5C2
:100BF000965D00206A4603E03449095C1154401CAC
:100C0000B0F5965FF8DB002005461EE03049420053
:100C10005242114400EB800212010AAB91F8774076
:100C200002EB64041D5591F8B330FF2B03D00AACDE
:100C300002EB6303E55491F8EF10FF2904D00AABEF
:100C400002EB610229469954401C3B28DEDB2C460E
:100C500000E0641C072C0CDC20465038C0B2FFF7C3
:100C600097FD0020FFF794FD1020FFF791FD002570
:100C700006E00DF5965D70BDC0B2FFF72BFD6D1C53
:100C8000502DE6DA002001460729F5DC6A4604EB20
:100C9000840301EB8106360106EBC316AE19925DA3
:100CA000C1F107039A401018072C01D10329E3D0A2
:100CB000491CE9E70050C347ACC527B780F00F4097
:100CC0001A1E0020F168E388B5F8E43E940A00207B
:100CD000541D00200000000000000000002F000054
:100CE00000000700070000147F147F1400242A7FEF
:100CF0002A1200626408132300364955225000006E
:100D00000503000000001C224100000041221C00DD
:100D10000014083E08140008083E0808000000A05F
:100D2000600000080808080800006060000000205B
:100D300010080402003E5149453E0000427F400039
:100D4000004261514946002141454B3100181412BF
:100D50007F10002745454539003C4A49493000018C
:100D60007109050300364949493600064949291EDB
:100D7000000036360000000056360000000814223D
:100D8000410000141414141400004122140800023D
:100D90000151090600324959513E007C1211127C62
:100DA000007F49494936003E41414122007F41418F
:100DB000221C007F49494941007F09090901003E81
:100DC0004149497A007F0808087F0000417F4100BF
:100DD000002040413F01007F08142241007F404035
:100DE0004040007F020C027F007F0408107F003E1D
:100DF0004141413E007F09090906003E4151215E03
:100E0000007F091929460046494949310001017FFF
:100E10000101003F4040403F001F2040201F003F95
:100E20004038403F00631408146300070870080747
:100E300000615149454300007F41410000552A555A
:100E40002A55000041417F000004020102040040D5
:100E500040404040000001020400002054545478F7
:100E6000007F484444380038444444200038444417
:100E7000487F00385454541800087E0901020018B5
:100E8000A4A4A47C007F080404780000447D4000F2
:100E9000004080847D00007F102844000000417FD6
:100EA0004000007C04180478007C080404780038B2
:100EB0004444443800FC242424180018242418FC3A
:100EC000007C0804040800485454542000043F44A3
:100ED0004020003C4040207C001C2040201C003C66
:100EE0004030403C004428102844001CA0A0A07CB6
:100EF000004464544C44141414141414012200F0DB
:100F00001F018A404549400941F82020704778B4C4
:100F1000434C256845F4785525600546414EAD1B88
:100F200008D0403D08D0403D08D0403D08D0403D6D
:100F300008D008E03C4C06E03C4C04E03C4C02E0AD
:100F40003C4C00E03C4C4FF4807544F821500124A7
:100F500004FA01F1012A42690BD10A434261012BD3
:100F6000026802D11143016006E022EA010101603A
:100F700002E022EA0101416171BC7047026801236D
:100F800003FA01F151400160704781B02B4A0346DA
:100F90005B1152F82320012300F01F0003FA00F038
:100FA0000029116803D121EA0000106001E0084324
:100FB000106001B07047014620480A46521150F8AF
:100FC0002200006901F01F01C84000F001007047D5
:100FD00030B4144D401B08D0403809D040380AD0F6
:100FE00040380BD040380CD00DE00F4C3B230AE0CA
:100FF0000E4C3C2307E00E4C3D2304E00D4C3E23F9
:1010000001E00D4C3F23120402F4702242F480727E
:1010100044F82120184640B230BC6FE700E100E000
:101020003880044000F00F400090044000A00440CD
:1010300000B0044000C0044000D00440EC01002097
:10104000FFE7010013D00D490A6842F001020A606F
:101050000B4900220A608860052048600120086072
:1010600008680006FCD50868400840000860704722
:101070000348016841F080010160704738800440F6
:1010800000000440C0F3C75181B1FF2906D0C11050
:10109000400721F0E04101F16051704741020CBF6F
:1010A00040F4E0016FF000410020704700F0004183
:1010B00000020AD0B0FA80FC00FA0CF001F1605195
:1010C000A1EB0C5101EBD0214005704770B44FF0FB
:1010D000004591EA030F40F1E9806B40841A71EBFF
:1010E000030604D26E40001BB141121973414FF444
:1010F000001C1CEB410F34BF7CEB430682E00C0D5F
:10110000A4EB1356362E7BDC012E45EAC32341DCCB
:1011100043EA525312BFD20292025B08240545EA09
:10112000C12141EA5051D2EBC020994125D407D1C9
:10113000B0FA80F610FA06F162D00020203608E0FE
:10114000B1FA81F6B140C6F1200220FA02F2114351
:10115000B0404FEAF474B4EB465434F001064FEA61
:1011600074040AD8D6F50016760D04F00044F04059
:1011700061FA06F25040F1404840C00A40EA41504E
:1011800021F0004128BF5FEA500550F1000044EB18
:10119000D12135E0DB0A45EAC121C90AB6F12005B3
:1011A0000EDD42EA0242120CC5F1200603FA06F6F1
:1011B000EB4042EA06056D42984161F100010DE005
:1011C00062FA06F5F240554063FA06FC82EA0C0228
:1011D000F3405A406D42904161EB030111F4801FCE
:1011E00005D1641E620502D06D004041494121F4E1
:1011F0008011430875F1004350F1000041EB0451A8
:1012000070BC70471CEB410F15D223F0004352EA2B
:1012100043060BD04FEA4C0CBCEB410F04D80C0D2D
:10122000661E342EB7DDEBE7801A994150EA41067D
:1012300008BF0021E4E708BF1CEB430F28BF6FF095
:101240000001DDE701F000428B1AA3F16051B1F516
:10125000801F0ADBB1F17F6F1FD242EAC102C100D9
:1012600071F1004142EB507070470B15C3F1090357
:10127000212B10D2890241EA905180020128494174
:1012800041F0004121FA03F0C3F12003994071F1CC
:10129000004150417047100070476FF0000013EBA1
:1012A000103F5CBF000E42EAC0507047841A71EBD9
:1012B000030603D2001BB141121973414FF4001C05
:1012C0001CEB410F34BF7CEB430442E00C0DA4EB5C
:1012D0001356352E4FDC45EAC323DB0A45EAC1210C
:1012E000C912B6F120050DDD63FA05F6EB4086EA7A
:1012F0000305124218BF45F00105C01851F1000165
:101300000CD213E062FA06F5F2405540F3415A4020
:10131000B340F3405A408018594107D349085FEA67
:1013200030005FEA350528BF45F0010501F5801161
:10133000420875F1004250F1000041EB04514E00AB
:1013400016F5001F70BC38BF70470020090D090555
:1013500070471CEB410F10D252EA43060BD0BCEB96
:10136000410F05D80C0DAB43661E342EB6DD02E0EE
:10137000AB438018594170BC704770BC7047FEE7A2
:101380000146042000F0BDBCDFF84007DFF840173D
:1013900091ED000AB8EEC00A80ED030ADFF83417B9
:1013A000B1F9001000EE101AB8EEC00A80ED040A80
:1013B000DFF8241709684161DFF8201709688161A7
:1013C000DFF81C170968C161DFF81817C98900EE3A
:1013D000101AB8EE400A80ED080ADFF80C17096809
:1013E0004162DFF80817097800EE101AB8EE400ADB
:1013F00080ED0A0A7047DFF8F806C168DFF8E826D2
:1014000011600169DFF8EC261160DFF8D81690ED65
:10141000060ABDEEC00A10EE102A0A8090ED070AF7
:10142000BDEEC00A10EE102A8A80DFF8CC1690EDCF
:10143000080ABDEEC00A10EE102A0A8090ED090AD3
:10144000BDEEC00A10EE100A08817047F8B5DFF84B
:10145000A046A078022849DAA06CFFF713FE4FF0EF
:101460006632DFF8983600F0A1FC0022DFF89036F3
:1014700000F09CFCDFF88C26DFF88C3600F096FC40
:10148000FFF7E0FEA0640FF2C86200210846FFF7F4
:10149000D9F9022294ED120A00213020FFF792FAC6
:1014A0000522207A04EB800090ED150A00214820E7
:1014B000FFF788FAC1A2E07807280AD1DFF84C5676
:1014C0000120287000217420FFF7BCF9002028704B
:1014D00003E000217420FFF7B5F907217A20FFF718
:1014E00082F9A0783030C0B2FFF7EEF9A07800287A
:1014F00050D1002732E0052204EB870090ED030A6B
:101500002946C9B24820FFF75DFA20E007EB470003
:1015100004EB800000F16C022946C9B20020FFF7FD
:1015200091F9E0788742E6D120790028E3D0DFF80E
:10153000DC6501203070052204EB870090ED030A82
:101540002946C9B24820FFF73DFA002030702946ED
:10155000C9B27420FFF747F92F46FFB2072F80F278
:10156000A4807D1CE0788742D0D120790028CDD19D
:10157000DFF898650120307007EB470004EB80002E
:1015800000F16C022946C9B20020FFF75BF9002088
:101590003070C6E7012850D10FF2C052062100205A
:1015A000FFF750F90422DFF8380590ED000A062114
:1015B0004820FFF707FA0FF2B45202210020FFF78C
:1015C00041F90422DFF8480590ED000A0221482085
:1015D000FFF7F8F90FF2A05203210020FFF732F9CC
:1015E000042294ED130A03214820FFF7EBF90FF2D0
:1015F000905204210020FFF725F90422DFF814059A
:1016000090ED000A11464820FFF7DCF90FF27C52FA
:1016100005210020FFF716F90422DFF8FC040088FA
:1016200000EE100AB8EE400A05214820FFF7CAF97B
:101630000020DFF8D8140870F1BD022835D1FFF77B
:10164000D5FA0FF2545202215220FFF7FBF8042280
:10165000DFF8C804008800EE100AB8EE400A032143
:101660005220FFF7AFF90FF23C5204215220FFF74E
:10167000E9F80422DFF8A804B0F9000000EE100A2F
:10168000B8EEC00A05215220FFF79CF90422DFF8CA
:101690009404B0F9000000EE100AB8EEC00A06216A
:1016A0005220BDE8F840FFF78DB9F1BD10B5DFF865
:1016B00040446420FFF77FFC0028A07917D1002860
:1016C00025D10120A0710020FFF7A0F80FF2E04221
:1016D00003213220FFF7B6F84FF4C871002000F064
:1016E00063FE4FF4C871022000F05EFE0FE0012897
:1016F0000DD10020A071FFF789F84FF496710020FA
:1017000000F052FE4FF49671022000F04DFE65206D
:10171000FFF751FC002860780DD1002811D101207D
:1017200060700020FFF772F80FF290420321322020
:10173000FFF788F805E0012803D100206070FFF76B
:1017400065F86620FFF737FC0028607906D100288D
:101750000BD1FEF703FF0120607106E0012804D1E0
:101760000020FFF753F8002060716720FFF723FC8B
:101770000028E0790ED100281ED10120E071002060
:10178000FFF744F80FF2404203213220BDE8104039
:10179000FFF758B801280FD10020E071FFF736F8A5
:1017A0004FF49671002000F0FFFD4FF49671022077
:1017B000BDE8104000F0F8BD10BD00004545000038
:1017C0001CB5DFF82C436B20FFF7F5FB002817D181
:1017D0006079002814D01E20FFF732FC6B20FFF741
:1017E000EAFB002807D16079002804D0E0780728B8
:1017F0007AD10020E0706B20FFF7DDFB0028FAD0E3
:101800006C20FFF7D8FB002814D11E20FFF718FC2E
:101810006C20FFF7D0FB002807D12079002877D073
:10182000207A052871D1052020726C20FFF7C3FBB8
:101830000028FAD06D20FFF7BEFB002817D1607991
:10184000002814D01E20FFF7FBFB6D20FFF7B3FB31
:10185000002807D12079002868D0207A002801D0FC
:10186000401E20726D20FFF7A6FB0028FAD06E20E4
:10187000FFF7A1FB002817D16079002814D01E20A3
:10188000FFF7DEFB6E20FFF796FB002807D12079DB
:1018900000285CD1E078002856D12078E0706E20D6
:1018A000FFF789FB0028FAD06A20FFF784FB0028A5
:1018B00019D16079002800F0A5801E20FFF7C0FB39
:1018C0006A20FFF778FB002808D1207900286DD125
:1018D000E0782178884266D10020E0706A20FFF726
:1018E0006AFB0028FAD013BD207900280AD1A0781D
:1018F000012804D0401E8041C00F20717BE70120E9
:10190000207178E70020207175E7401C20728CE779
:101910000020E070A078002802D10320A07001E030
:10192000401EA0700020FEF771FF7EE70020E070EF
:10193000A078032802D10020A07001E0401CA07014
:101940000020FEF763FF8DE7401EE070A7E7A07858
:10195000002811D1E17807290EDA04EB810191ED1D
:10196000030A04F15402237A02EB8302D2ED000A47
:1019700030EE200A81ED030A012811D1E078072812
:101980000EDA04EB800090ED0A0A04F15401227A89
:1019900001EB8201D1ED000A30EE200A80ED0A0A47
:1019A000FFF729FD7BE7401CE07097E7A07800284F
:1019B00011D1E17807290EDA04EB810191ED030AD8
:1019C00004F15402237A02EB8302D2ED000A30EED6
:1019D000600A81ED030A012811D1E07807280EDAA8
:1019E00004EB800090ED0A0A04F15401227A01EB25
:1019F0008201D1ED000A30EE600A80ED0A0AFFF79D
:101A0000FAFC6BE74848007800283FF467AF4FF4D2
:101A10007A70206501204549087045480021016021
:101A20004448016044480160444801604448016002
:101A30004448016008462B49C881E06434480021CD
:101A400001604148016049E71CB50320FFF798FC9D
:101A5000FC20FFF795FC032414E01C4951F82000FA
:101A600000909DF80000FFF78BFC9DF80100FFF748
:101A700087FC9DF80200FFF783FC9DF80300FFF749
:101A80007FFC641CE4B220460B28E6DBFC20FFF759
:101A900077FC0320BDE8164072E410B50024022054
:101AA000FFF76EFCFD20FFF76BFC04E02749085CA4
:101AB000FFF766FC641CE4B220468028F6DBFD20BC
:101AC000FFF75EFC0220BDE8104059E464050020E9
:101AD00008010020141E0020440500201C050020E1
:101AE00024050020AC040020200500202404002050
:101AF000240100204C0500205405002066660A40A1
:101B00000000303FCDCCCCCCCCCC16401A1E0020EF
:101B100048050020400500200A1E00202004002067
:101B2000160400201E04002005000020191E0020BD
:101B3000100500200C0500201405002030050020B1
:101B400018050020340500203C0500202C0400204E
:101B5000566F6C746167653D00000000436172530D
:101B60007065656452696768740000004469737445
:101B7000616E63650000000052756E54696D65000A
:101B8000417665726167655F5370640055534469BF
:101B90007374616E636500004C69676874436E74AA
:101BA00000000000506F736974696F6E00000000E0
:101BB00048696768205370656564000053656E640A
:101BC00020496D6700000000486967682048696720
:101BD0006820537065656400F0B40246052A45D854
:101BE000DFE802F0030E19242F3A4B4AD36843F47E
:101BF0008063D360494B4FF440725A601A6035E0FD
:101C0000454AD36843F40063D360454B4FF44072B8
:101C10001A605A602AE0404AD36843F48053D36084
:101C2000404B4FF440721A605A601FE03A4AD36842
:101C300043F40053D3603A4B4FF440725A639A63B3
:101C400014E0354A136843F480631360364A4FF456
:101C500000635364136409E02F4A136843F400637C
:101C60001360314B4FF440725A601A602F4B53F897
:101C70002020D47804F0F304D47053F82020947812
:101C800094702B4A14682B4A54430A01B4FBF2F2B5
:101C900092B2B2F5005F01DB41F6FF7253F82050BB
:101CA0002E7806F0E00617463F1207F01F073E4366
:101CB0002E7053F820506A7053F82060B57A05F002
:101CC000E005B4FBF1F1A1EB021101F01F010D439E
:101CD000B57253F820100A7C42F088020A7453F857
:101CE0002000C17841F00C01C170F0BC704781B098
:101CF0000E4951F820100A799206F9D5C87901B039
:101D0000704781B0094A52F8202013791B06F9D593
:101D1000D17101B070470000288004403890044021
:101D20000CB0044008C0044020D004407C020020D5
:101D3000E005002040420F0080B50020FFF7D7FFEC
:101D400001460020BDE80440DBE780B50120FFF735
:101D5000CEFF01460120BDE80440D2E780B5022055
:101D6000FFF7C5FF01460220BDE80440C9E780B582
:101D70000320FFF7BCFF01460320BDE80440C0E795
:101D800080B50221084600F06FFB0420FFF7AFFF8B
:101D900001460420BDE80440B3E780B50520FFF705
:101DA000A6FF01460520BDE80440AAE7B0B581EAD8
:101DB000030C0CF0004C40F2FF7515EA11541DBFE6
:101DC00015EA1357AC42AF4239E0E41923EA455310
:101DD00043F48013C90241F0004141EA505EC7025A
:101DE0001100A7FB020200284FF00000EEFB0120CB
:101DF0004FF00001E3FB072118BF42F00102401839
:101E000000214941E3FB0E01A4F580640F0302D2D7
:101E100052004041494154F101046CDD470872F120
:101E2000004250F1000051EB0451A1F580115CBF5C
:101E300041EA0C01B0BD4CEA05510020B0BD05EAF5
:101E40001357AC4214BFAF4241E050EA410E1CBFF1
:101E500052EA430E02E061460020B0BD24423C44F9
:101E60001BD15FEA070EF6D0090302BF014600202E
:101E7000AEF1140EB1FA81F7AEEB070401FA07FEDA
:101E80000C37C7F1200100FA07F7C8404EEA000EF0
:101E900023EA455343F48013A2E733F00043B3FA37
:101EA00083F704BFB2FA82FE77440B3FE41BB7F11D
:101EB000200E2FBF02FA0EF3BB40C7F1200E22FA0C
:101EC0000EFE38BF43EA0E03BA40641C82E750EAB4
:101ED000410E14BF52EA430E6FF000014FF4001799
:101EE00017EB430F8ABF194617EB410FB5E74CEAD2
:101EF00005510020B0BDD4F10104B4F120070FDA80
:101F0000C4F12007520828BF42F0010210FA07F579
:101F100001FA07F7E1BF2A43E0403843E1400FE010
:101F2000352C98DCC7F1200452EA400220FA07F26F
:101F300018BF42F0010231FA07F0A1400A43002124
:101F400072F1004250F1000051EB0C01B0BDFEE710
:101F500030B40446DFF87C54AC4200F08B80DFF8EC
:101F60007854AC4208D0DFF87454AC4254D0DFF857
:101F70007054AC4267D013E0DFF86844E56845F080
:101F80008075E5600C46072C1AD8DFE804F0041BC6
:101F900021272D33393F4FF48064DFF84C542C60F7
:101FA00000EBC101CC6824F00404CC602824CC6090
:101FB0000C24046082600022C2640B6111464160FF
:101FC00030BC70474FF48064DFF81C546C60E7E766
:101FD0004FF48064DFF81054AC60E1E74FF48064A4
:101FE000DFF80454EC60DBE74FF48064DFF8FC5367
:101FF0002C60D5E74FF48064DFF8F0536C60CFE7D6
:102000004FF48064DFF8E453AC60C9E74FF48064B8
:10201000DFF8D853EC60C3E7DFF8C843E56845F064
:102020000075E560002902D0012906D0C8E74FF409
:102030004074DFF8BC532C60B2E74FF44074DFF813
:10204000B0536C60ACE7DFF89C43E56845F0806511
:10205000E560002902D0012906D0B1E74FF44074B1
:10206000DFF890532C609BE74FF44074DFF8845303
:102070006C6095E7DFF86C43256845F000752560D6
:102080000C46072C9CD8DFE804F0050B11171D2324
:10209000292F95E74FF4C064DFF85C532C607FE78D
:1020A0004FF4C064DFF850536C6079E74FF4C064BC
:1020B000DFF84453AC6073E74FF4C064DFF8385383
:1020C000EC606DE74FF4C064DFF82C532C6167E7D8
:1020D0004FF4C064DFF820536C6161E74FF4407443
:1020E000DFF804536C625BE74FF44074DFF8F8529A
:1020F000AC6255E730B40446DFF8D852AC4200F089
:102100008B80DFF8D452AC4208D0DFF8D052AC421A
:1021100054D0DFF8CC52AC4267D013E0DFF8DC4299
:10212000256845F0807525600C46072C1AD8DFE835
:1021300004F0041B21272D33393F4FF48064DFF86E
:10214000A8522C6000EBC101CC6824F00404CC60E0
:102150002824CC600F24046082600022C2640B61DA
:102160001146416030BC70474FF48064DFF878520C
:102170006C60E7E74FF48064DFF86C52AC60E1E735
:102180004FF48064DFF86052EC60DBE74FF480646A
:10219000DFF858522C60D5E74FF48064DFF84C52DA
:1021A0006C60CFE74FF48064DFF84052AC60C9E761
:1021B0004FF48064DFF83452EC60C3E7DFF83C4250
:1021C000256845F000752560002902D0012906D058
:1021D000C8E74FF44074DFF818522C60B2E74FF4B0
:1021E0004074DFF80C526C60ACE7DFF810422568F1
:1021F00045F080652560002902D0012906D0B1E7AD
:102200004FF44074DFF8EC512C609BE74FF44074BE
:10221000DFF8E0516C6095E7DFF8E041256845F0B4
:10222000400525600C46072C9CD8DFE804F0050B20
:1022300011171D23292F95E74FF4C064DFF8B8511B
:102240002C607FE74FF4C064DFF8AC516C6079E735
:102250004FF4C064DFF8A051AC6073E74FF4C06482
:10226000DFF89451EC606DE74FF4C064DFF88851FB
:102270002C6167E74FF4C064DFF87C516C6161E763
:102280004FF44074DFF860516C625BE74FF44074C8
:10229000DFF85451AC6255E70146DFF8382191422E
:1022A00022D0DFF83821914204D0DFF83421914266
:1022B0000DD02FE0DFF82C11CA6842F00072CA601E
:1022C0004FF4E062DFF838118A60CA6022E0DFF87C
:1022D0001411CA6842F08062CA60DFF824114FF41A
:1022E000C0620A604A6015E0DFF8F8100A6842F040
:1022F00040020A60DFF800214FF4C06111605160B4
:102300009160D16011615161DFF8F8104FF4806283
:102310000A604A60416D41F004014165D0F88010C7
:1023200041F00801C0F880100021C1644FF6FF7130
:102330008160D0F8801041F00101C0F88010416D3B
:1023400041F0010141650021416070470146486844
:1023500000224A6000B2704710B51F4C00234FF4B2
:102360007A7219462046FFF7F3FD00234FF47A7284
:1023700001212046FFF7ECFD00234FF47A72022181
:102380002046FFF7E5FD00234FF47A720321204633
:10239000BDE81040DCE51C48006803469BB242F2F1
:1023A000107202210B48A5E603280ED8DFE800F0E2
:1023B0000205080B1548016070471448816070479A
:1023C00012480161704711488161704710490860E7
:1023D000704700000060024000800340009003400E
:1023E00000A003403080044004B0044010C004400A
:1023F0002090044048A0044014D004403C80044095
:102400002890044028B00440D400002010800340ED
:102410002060024080B5002301221D216848FEF79C
:1024200076FD0023012211216648FEF770FD00238E
:10243000012219466448FEF76AFD002301220F219C
:102440006248FEF764FD0021012000F00DF8012133
:10245000022000F009F80121032000F005F8012115
:102460005FF00400BDE80440062800D9704780B53D
:10247000DFE800F0041D4D35A5A56500080005D175
:102480005148016849084900016001BD012905D191
:102490004D48016841F00101016001BD022940F091
:1024A0008E8000214848BDE80440FEF767BD080063
:1024B00005D14648016821F40041016001BD0129B0
:1024C00005D14248016841F40041016001BD022983
:1024D00075D10F213D48BDE80440FEF74FBD08000F
:1024E00005D13848016821F40031016001BD01299E
:1024F00005D13448016841F40031016001BD022971
:102500005DD111212F48BDE80440FEF737BD08001A
:1025100005D12B48016821F00051016001BD01295E
:1025200005D12748016841F00051016001BD022931
:1025300045D11D212248BDE80440FEF71FBD08001B
:1025400013D12148016C21F400410164016849085C
:10255000490001601B48016821F4003101601B48FB
:10256000016C21F00051016401BD012913D116480D
:10257000016C41F400410164016841F00101016016
:102580001048016841F4003101601048016C41F0CD
:102590000051016401BD022911D111210948FEF742
:1025A000EDFC1D210648FEF7E9FC00210648FEF778
:1025B000E5FC0F210548BDE80440FEF7DFBC01BD86
:1025C00000F10F4000F00F4080F00F40C0F00F40CE
:1025D00038B500210846FFF7E7FE00210220FFF78B
:1025E000E3FE4FF496710120FFF7DEFE4FF4967183
:1025F0000320FFF7D9FE40F2A640DFF81047208005
:10260000FFF7E4FE41F27C55284600F0ADF84FF4A8
:1026100096710020FFF7C8FE4FF496710220FFF775
:10262000C3FE00210120FFF7BFFE00210320FFF7BA
:10263000BBFE4FF4A5602080FFF7C8FE284600F0DF
:1026400093F89620DFF8C816C88131BD2DE9F04116
:102650002DED068BDFF8BC06FFF778FE06467642C6
:10266000DFF8B406FFF772FE8046DFF8A476002E8E
:1026700048D4B8F1000F45D49FED728B9FED739B4A
:102680009FED74AB386FFEF7FDFC53EC1A2BFFF790
:102690008DFB04460D46404600F066FB53EC192BBB
:1026A000FFF784FB53EC182BFFF780FB0022DFF8C9
:1026B0006C3600F06BFB22462B46FEF707FDFEF75B
:1026C000C1FD3867B86FFEF7DDFC53EC1A2BFFF73E
:1026D0006DFB04460D46304600F046FB53EC192BCB
:1026E000FFF764FB53EC182BFFF760FB0022DFF8C9
:1026F0002C3600F04BFB22462B46FEF7E7FCFEF79C
:10270000A1FDB86797ED1E0ADFED540AB4EE600A2A
:10271000F1EE10FA01DB0020F867DFED520AB4EEAB
:10272000600AF1EE10FA0FD5F88940F22D118842B7
:102730000ADBF86F002807D1D7F880001F2803DADA
:10274000401CC7F8800002E00020C7F88000D7F8DE
:1027500080001F2804DBFFF73BFF0020C7F8800044
:10276000BDEC068BBDE8F08107E043F226410A4646
:10277000511E92B2002AFAD1401E014689B20029A8
:10278000F3D17047DFF8880590ED1D0AD0ED1E0AE1
:1027900030EE600AF0EE400A002181660AE000EBAC
:1027A0008102D2ED051AC2ED041A31EE211A80ED34
:1027B0001A1A491C90ED1A1A1329F0DBC0ED170AFA
:1027C00031EE001A80ED1A1A90ED180A80ED190A00
:1027D000018801EE901AF8EE611A61EEA00A818874
:1027E00001EE901AF8EE611A41EE810AB2EE0E1A6D
:1027F00000EE810A80ED180ADFED190AB4EE600AD6
:10280000F1EE10FA03DBDFF8181501667047DFED13
:10281000160AB4EE600AF1EE10FA01D5C0ED180AFE
:102820007047DFF8EC0490ED180ABDEEC00A10EE18
:10283000101AC18190ED1B0ABDEEC00A10EE101AED
:10284000818170470000000000406F40CDCCCCCCAF
:10285000CCCCEC3F9A9999999999B93F01000040E5
:102860000100FA43CDCC4C3E000096C32DE9F04167
:102870002DED028B82B0DFF8AC5405F1D004206C52
:10288000012806D1DFF8A0040078032801D100F068
:10289000BCFBDFF898643078002800F0DE80DFF8B9
:1028A00090743978FF2900F0D880616C0B2980F290
:1028B000D48000206870DFF858849FED708A88ED1E
:1028C0001D8A606401460420FFF7CEFD002101202F
:1028D000FFF7CAFD00210220FFF7C6FD00210320FB
:1028E000FFF7C2FD0020E064A069DFF84814098802
:1028F00081424BDBE2698A4248DBA26C082A45DC54
:102900000020A06488ED1D8A01210420FFF7ACFDA2
:1029100000210120FFF7A8FD00210220FFF7A4FD00
:1029200001210320FFF7A0FD0020E064216ADFF809
:102930000804B0F90020DFF80404B0F90000002812
:1029400000F07B818A4210DB00232B702B781E461F
:10295000132E80F2728105EB4606B6F908608642B6
:1029600080F26B815B1C2B70F0E700232B702B78BF
:102970001E46132E80F2618105EB4606B6F93060E3
:10298000B042C0F25A815B1C2B70F0E7814202DB3F
:10299000E069884207DAA06C082804DC401CA064C7
:1029A0000120E06444E10020A0646870DFF8900337
:1029B000C8F8740000202870287805EB40015831D1
:1029C000132880F26E813278B1F900309A42C0F259
:1029D0006881401C2870EFE7B1F92810101A401ADE
:1029E000A062E16A411A00EE101A84ED0C0AE0625E
:1029F000216800EE900AF8EEE00A94ED041A60EE09
:102A0000810AFDEEE00A10EE900A091AB8EEC00A3B
:102A1000D4ED050A20EE200ABDEEC00A10EE100A21
:102A2000081AB5F90210024612B2914202DAB5F95B
:102A3000020007E0B5F9041002460B4612B29A42B2
:102A400000DA0846B1490880B1F9000002B0BDECD7
:102A5000028BBDE8F041FFF7B9BC002803D0B448B1
:102A60000078FF280CD1606C0B2809DA401C6064E8
:102A70000220E06400206870DAE000BFCDCC0C409A
:102A800000206870A248AF49416701210846FFF75E
:102A9000EBFC01210220FFF7E7FC01210320FFF7F7
:102AA000E3FC00210420FFF7DFFC206C012840F04C
:102AB000BF80002060648446054606460746A2485B
:102AC0000068002801D14FF0020CA04909680029D4
:102AD00002D10CF1010C01269D490968002902D19F
:102AE0000CF1010C01279B490968002900D1B61C93
:102AF000994A1368002B00D1BF1C984A1268002A1B
:102B000001D10125761C964A1268002A01D16D1C5C
:102B10007F1C944A1268002A00D1AD1C104300F0BB
:102B20008780194300F08480654501DABE4279D080
:102B3000AC4501DABE4266D0AC4516D1B74214DAD4
:102B4000E06C002803D04FF4E160FFF70DFE206831
:102B5000616808183C38FFF739FC21686068411843
:102B6000A1F13C006949088062E0AC450ED1BE424B
:102B70000CDA20686168401A3C30FFF727FC2168B6
:102B80006068091A3C316148018051E065450FDAFF
:102B9000B7420DDA2068616808188238FFF716FC22
:102BA000216860684118A1F18200584908803FE01F
:102BB00065450EDABE420CDA20686168401A823040
:102BC000FFF704FC21686068091A82314F480180D0
:102BD0002EE0AC4513DAB74211DAE06C002803D0DE
:102BE0004FF4E160FFF7C0FD206861680818FFF747
:102BF000EDFB2168606841184448018018E0AC454D
:102C00000CDABE420ADA20686168401AFFF7DEFB80
:102C100021686068091A3D48018009E0AC4507D188
:102C2000BE4205D12068FFF7D1FB206837490880F4
:102C300002B0BDEC028BBDE8F0811B32511A61631A
:102C4000E06B081A00EE100A84ED0E0AE1632268B8
:102C500000EE901AF8EEE00A94ED021A60EE810A96
:102C6000FDEEE00A10EE900A121AB8EEC00AD4ED9A
:102C7000030A20EE200ABDEEC00A10EE100A101A58
:102C8000B5F90210024612B29142FFF6D0AEB5F984
:102C9000041002460B4612B29A42BFF6D3AE084663
:102CA000D0E6606A3A788242FFF696AEB1F95010EB
:102CB00094E638B50C4640F2F510844201DB4FF43F
:102CC000FA74134DE86F012804D14FF4FA71002013
:102CD000FFF76AFBE86F012806D14FF4FA71022072
:102CE000BDE83440FFF760BB21460020FFF75CFBE6
:102CF00021460220FFF758FB00210120FFF754FB7B
:102D000000210320BDE83440FFF74EBB141E002015
:102D1000AC04002000A00340009003400038A8400D
:102D20000000FA4304000020081E002024040020B4
:102D30002504002020040020160400201E0400208A
:102D40006666E63FCDCC4C40C8050020C405002097
:102D5000CC050020C0050020D0050020BC050020C7
:102D6000D4050020D8050020C11768B14840401A9A
:102D7000B0FA80F29040D21CC907C2F5846241EAE1
:102D8000025202EBD02140057047FEE7F0B540F259
:102D9000FF7581EA030C0CF0004C15EA11541DBFBD
:102DA00015EA1357AC42AF42E5E0BC41C1F3130151
:102DB000C3F31303801A994143F4801304D2641EB1
:102DC0004000494180185941C90241EA5051B1FBC4
:102DD000F3F603FB1611A2FB0675D7EBC020A94141
:102DE00002D2761E80185941C90241EA5051B1FB06
:102DF000F3FE03FB1E11A2FB0E75D7EBC020A94109
:102E000003D2AEF1010E80185941890241EA905176
:102E1000760546EA8E2EB1FBF3F603FB1611A2FBF4
:102E20000675D7EB8020A94102D2761E8018594141
:102E3000C90241EA50514EEA060EB1FBF3F603FB1C
:102E40001611A2FB0675D7EBC020A94102D2761E4F
:102E500080185941C90241EA5051B1FBF3F703FB15
:102E60001711A2FB0735D3EBC020A94167F100077A
:102E70000CBF004247F0010766F3D5274FEA1E3129
:102E8000B80814F5806412DDBD0775F1004250EBFF
:102E90000E5051EB045111F5801F5CBF41EA0C014B
:102EA000F0BD4CF07F6141F0E0410020F0BDBD0776
:102EB0006D0840EA0E5041F48011D4F10104B4F1E0
:102EC00020060ADAC4F120060200E04001FA06F307
:102ED000E1401843B24015430EE0342C13DCC6F138
:102EE000200445EA40056D0820FA06F2154321FA50
:102EF00006F0A1400D43002175F1004250F10000A1
:102F000051EB0C01F0BD00205FEA0C01F0BDCFB920
:102F100092185B41B3FA83F704BFB2FA82F6BF1985
:102F20000B3FB7F120062FBF02FA06F3BB40C7F1F3
:102F3000200622FA06F638BF3343BA401CB1E41922
:102F4000641E33E77F4231F00041B1FA81F404BFDF
:102F5000B0FA80F6A4190B3CB4F120062FBF00FA9A
:102F600006F1A140C4F1200620FA06F638BF31432D
:102F7000A0403C1B1AE7AC421ABF05EA1357AF4208
:102F800012E050EA41061CBF52EA4306BFE750EA8E
:102F90004107304661461CBF41EA0551F0BD52EA87
:102FA000430C08BFC143F0BD00204FF4001616EBE0
:102FB000410F98BF16EB430F08BF16EB410F24BF1C
:102FC000C14305E016EB430F0CBF61464CEA0551C7
:102FD000F0BDFEE7002040F6B83100E0401C00B232
:102FE0008842FBDB704710B5364C002301220821D4
:102FF0002046FDF78CFF0A2209212046FDF7E8FF55
:103000004FF0FF303049086010BD10B52F4C60788C
:10301000401C60702078032802D0207800280ED150
:1030200001212820FDF7B1FFFFF7D4FF0021282060
:10303000FDF7ABFF2648006860600120207001208A
:1030400010BD000018B420480168890503D5016847
:1030500041F4007101601D480178012927D11D4903
:103060004A6882600323037043689C1A00EE104A8A
:10307000B8EE400A05D2D1ED000AF8EE600A30EE53
:10308000800AD1ED000AF8EE600A80EE200ADFED3A
:103090000C0A20EE200A4188BDEEC00A10EE102A6C
:1030A00012B211EB8201052291FBF2F141800A4834
:1030B0000068012801D111BCA7E711BC70470000CE
:1030C00000007F4440F00F40A0A00440081E0020F4
:1030D000247103402071034014010020811DDFF89A
:1030E0004404014308787047801D40F090500078F8
:1030F0007047801D40F08050007870478901001DA6
:1031000040F0985001707047801D40F09850017851
:103110000846401E8041C043C00F7047801D40F0EC
:10312000945001780846401E8041C043C00F70474C
:10313000801D40F0845001780846401E8041C04305
:10314000C00F70472DE9F04106464FF40077FFF7B6
:10315000C5FF80463046FFF7C7FF0446701C40F0AD
:10316000845005783046FFF7D9FFB8F1030F26D811
:10317000DFE808F0020A1420002820D1002C01D139
:1031800008271CE001271AE0012C18D1002816D1CD
:10319000002D01D1022712E0042710E0002C0ED1EF
:1031A000002D05D1002801D0402708E0102706E0B7
:1031B000202704E0002C02D1002800D080273846C8
:1031C000BDE8F0812DE9F84304460D4616464FF060
:1031D0000009E71C484647F09C5108702046FFF75D
:1031E00083FF002806D194F8038088F02000E07067
:1031F0004FF00109207800F03B0040F004002070FF
:103200002046FFF771FF0128FAD1B9F1000F01D074
:1032100084F803802046FFF761FF0028FAD1E078A8
:1032200000F09F00690101F060010843E070294649
:10323000BD48384300788842FAD1300000D0B0470A
:103240000020BDE8F2832DE9F041044617461D46F3
:103250004FF00008FFF748FF012805D1E67886F017
:103260002000E0704FF00108207800F00300FF001C
:1032700007F0380707432770601C40F0885000783B
:10328000002804D02046FFF753FF0028FAD020463C
:10329000FFF72AFF0028FAD1B8F1000F00D0E6703E
:1032A0000698E17801F01F0141EAC511420102F0E0
:1032B00060021143E170E11C9B4A11430978024608
:1032C0009142F8D12046FFF709FF0028FAD107986C
:1032D000010000D080470020BDE8F0812DE9F047D3
:1032E00004460D46164698464FF0000AE71C504625
:1032F00047F09C5108702046FFF7F6FE002806D1E3
:1033000094F8039089F02000E0704FF0010A2078D3
:1033100000F03B0040F0440020702046FFF7E4FE40
:103320000128FAD1BAF1000F01D084F80390012EE0
:1033300003D14146204600F0A5F9617801F0FC0177
:1033400006F00100014361702046FFF7D2FE3146CE
:103350008842F9D1E07800F09F00690101F0600136
:103360000843E07029467048384300788842FAD113
:103370002046FFF7B3FE0128FAD10898010000D0DB
:1033800080470020BDE8F0872DE9F8430446164643
:103390001D464FF000084046611D41F098510870ED
:1033A0002046FFF7BBFE0028FAD104F10109404690
:1033B00049F0845108702046FFF796FE012805D198
:1033C000E77887F02000E0704FF00108207800F0E7
:1033D0000300F60006F03806064346F08006267025
:1033E0002046FFF781FE0028FAD1B8F1000F00D087
:1033F000E77049F0885999F80000002804D0204669
:10340000FFF796FE0028FAD00898E17801F01F0136
:1034100041EAC511420102F060021143E170E11C72
:10342000414A1143097802469142F8D12046FFF7FC
:1034300055FE0228FAD10998010000D080470020EB
:10344000BDE8F28338B504461546012D01D100F0E0
:1034500019F9617801F0FE0105F00100014341F026
:10346000020161702046FFF744FE29468842F9D1E7
:10347000002032BD80B50222431C43F084531A70F1
:1034800000F084F8002002BD70B504460E461D46CB
:103490000020611C41F084510870802023492143A1
:1034A00008702046FFF71AFE0228FAD1314620465E
:1034B00000F06CF800212046FFF720FE661D46F064
:1034C0009856002030702046FFF728FE0028FAD1D9
:1034D0000498217901F0F80105F007050D432571E5
:1034E000617901F0E00100F01F00084360714020A5
:1034F00030702046FFF712FE0128FAD12046FFF770
:1035000003FE0028FAD0002070BD10B5044600204C
:103510000649214308702046FFF7E0FD0328FAD151
:10352000002010BD000010110000901200001013C8
:10353000811DDFF8C402014308787047401C40F049
:10354000805001707047801D40F0805000787047B7
:10355000801D40F0985001780846401E8041C043CD
:10356000C00F7047801D40F0945001780846401EFF
:103570008041C043C00F7047801D40F084500178E7
:103580000846401E8041C043C00F704710B5044636
:10359000601C40F088500078002804D02046FFF7D7
:1035A000EBFF0028FAD010BDDFF85002006870472A
:1035B000D140002B11D0052A04D9921F04D0521EED
:1035C00006D009E0490908E01420B1FBF0F104E05D
:1035D0000C20B1FBF0F100E000210846704738B53F
:1035E0000446254645F088500078002811D1204631
:1035F000FFF7DAFF014645F08D552A78631CDFF8A6
:10360000000203431B78002000902046FFF7D0FF04
:1036100032BDDFF8F001406832BD10B410000DD0AB
:1036200048F20100814210D20FF2E41000EB830057
:1036300030F812004143084610BC7047DFF8C8015B
:10364000401841F68664A042EED30020F4E710B59E
:103650000446FFF787FF002801D0002010BD204658
:10366000FFF7BDFF010001D1002010BDE31C43F0B6
:103670009C500278DFF8940103431B782046BDE894
:103680001040CAE738B505460C4605F1080040F081
:1036900085500078884228D0681C40F0805000781F
:1036A000002808D1287A00F0D000640004F00E044D
:1036B00004432C7231BD00212846FFF73FFF284606
:1036C000FFF741FF0028FAD1287A00F0D00064000B
:1036D00004F00E0404432C7201212846FFF72EFF4C
:1036E0002846FFF730FF0128FAD131BD5CE738B535
:1036F0000446251DA01D40F094500078002806D1F6
:1037000045F098500078002801D1002032BD2046B5
:10371000FFF7ECFF45F081552978491CC9B2B0FB91
:10372000F1F0611D41F0825109781031C9B248436E
:10373000400832BD10B50446607900F0E00002F0A8
:103740001F0202436271207900F0D80040EA431062
:1037500001F00701014341F0400121712046FFF7CC
:10376000F7FE0028FAD010BD014641F084500078E1
:10377000002801D10020704722484A1C42F08052A4
:103780001278002A01D1406870470068083141F082
:1037900085510978C840704710B50446FFF7C8FE48
:1037A000032813D8DFE800F0060A0E022046BDE821
:1037B00010409CE72046BDE8104048E72046BDE8A1
:1037C0001040D1E72046BDE81040EDE6002010BDD6
:1037D00010B4447804F0C304090101F0300121431E
:1037E000D20002F0080211439B0003F004031943C6
:1037F000417010BC7047000000001011B805002097
:1038000000001012E4010020EE85FFFF000090127E
:103810008002DC020005B80580079508000A710BDC
:103820008901DFF8A822104301707047811DDFF87D
:10383000A002014308787047490040F084500170AD
:10384000704740F0805001707047401C40F080503D
:1038500001707047801D40F08050007870478901EA
:10386000001D40F0985001707047801D40F084505A
:1038700001780846401E8041C043C00F7047C9010F
:1038800040F09C5001707047490140F09450017025
:1038900070478901821CDFF83402024311707047BF
:1038A00047F2305100E000BF0846411E0028FAD11F
:1038B000704738B504460025B4F5807F0BDB4FF424
:1038C00043720FF228210FF21C2000F053F9AFF3DE
:1038D000008000E06D1C2046E840C007FAD528466D
:1038E000C0B232BDFEB504467A4D2846FFF72AFC29
:1038F000FFF7DFFF0746B4F90000FFF7DAFF0646DF
:103900000FF2302000EBC700875D384607284FD8FC
:10391000DFE800F00415290A1E2F344B6E4AE179C6
:103920002846FFF74FFC43E06B480190E079009098
:10393000237AA27900212846FFF785FC38E0002091
:10394000009063792279E1792846FFF7C7FC2FE0E0
:1039500000200190E0790090237AA2790021284686
:10396000FFF712FD24E0227961792846FFF76AFD0E
:103970001EE000212846FFF77DFD19E0072E01D04B
:10398000062E08D1207B0090E37A002211462846BB
:10399000FFF77AFD0CE002212846FFF741FF284699
:1039A000FFF744FF0228FAD102E02846FFF7ADFDF9
:1039B000B742A5D1A1782846FFF73EFFE178284617
:1039C000FFF73FFFA078002810D02079012803D10D
:1039D00061792846FFF756FE21792846FFF735FF23
:1039E0002846FFF737FF21798142F9D1607A002814
:1039F00006D0A37A227BE17A2846FFF79BFE03E0FC
:103A000000212846FFF72BFF0020FEBD38B50446F5
:103A10000D46002C09D040F2FE320FF2D0010FF219
:103A2000C40000F0A7F8AFF30080A87A01281ED1E7
:103A30002879002801D0082100E0002168790028B9
:103A400001D0042200E00022A879002801D0022041
:103A500000E00020EB795B1E9B41DB4311430143F7
:103A600051EAD3711D4850F8240000F095F805F193
:103A70000B01204600F017F8164CAB7A2A7A697AC7
:103A80002046FFF7A5FEA87A012807D1E87A012889
:103A900004D12046FFF7E9FE0028FAD02868104933
:103AA0000860002032BD38B50C460C4951F8205052
:103AB000A1782846FFF7EDFE21782846FFF7DFFEC4
:103AC00061782846BDE83440DEE6000000001013AF
:103AD0000000101100400640A13800106C53001087
:103AE000B80500207465737400000000433A5C550B
:103AF000736572735C6C656E6F766F5C4465736B37
:103B0000746F705C4B5635387968795C4B56353834
:103B10005C4C51757365725C73797374656D5C662A
:103B2000736C5F636C6F636B5F6D616E6167657211
:103B30002E630000000101030404040400010203D9
:103B40000404040401010201010101010001010357
:103B5000040404040001010304050606040404042B
:103B60000405060604040404040506070606060602
:103B70000606060600B583B00091019202906A46DF
:103B800004491820ABBE002801D100F00BF803B0A7
:103B900000BD00BF10100200027802F0F0021143D5
:103BA00001707047012000F001B8FEE780B5AFF367
:103BB0000080024A11001820ABBEFBE7260002007D
:103BC000DFF800F0CB030020DFF800F0A1020020B6
:103BD000012200F01F018A406E49400941F820206F
:103BE00070476D480168890109D5016841F000718D
:103BF00001604FF4167269490420FFF7E1BF704776
:103C00007FB500208DF80C00654C8A2219212046D2
:103C1000FDF7DEF9634D00231A4611462846FDF7ED
:103C200076F900231A4601212846FDF770F9002392
:103C30001A4602212846FDF76AF900231A46032195
:103C40002846FDF764F900231A4604212846FDF7AB
:103C50005EF900231A4605212846FDF758F900238E
:103C60001A4606212846FDF752F900231A46072175
:103C70002846FDF74CF900231A4618212046FDF787
:103C800046F900F075F88021122000F013FA0028A0
:103C900006D10FF2C01201210220FCF7E7FCFEE77B
:103CA0000120FDF7CDF90B22012103A800F037FA1E
:103CB000012816D19DF80C00212806D00FF2A4127D
:103CC00001210220FCF7D2FCFEE70FF2B012012125
:103CD0000220FCF7CBFC0220FDF7B2F90024324DA4
:103CE0001FE00FF2B01201210220FCF7BFFCFEE73B
:103CF0000FF2BC1204210220FCF7B8FCC820FDF72B
:103D00009FF9822002904FF41670019000200090DD
:103D10001823224A25490420FFF756FF7FBD641C63
:103D2000A4B295F86400844205EB4406E0DA15F885
:103D30001420012103A800F0F2F90028F7D0032095
:103D4000FDF77EF915F81420012103A800F0E7F92A
:103D50000128F4D19DF80C0071788842DFD003204F
:103D6000FDF76EF9717815F8140000F0A3F9E6E795
:103D700010B50C4C01231A4612212046FDF7C7F856
:103D800001231A4613212046FDF7C1F808480168AF
:103D9000406810BD00E100E0A0900440E405002070
:103DA00000F00F4040F00F401402002050F00F4090
:103DB00048A00440002001E000BF401CB0F57A7F1D
:103DC000FADB704738B403460FF2F8000088ADF80C
:103DD00000006C4637E011F8010B0546ED1105F0C7
:103DE0000105655D03F8015B0546AD1105F00105B0
:103DF000655D03F8015B05466D1105F00105655D24
:103E000003F8015B05462D1105F00105655D03F81A
:103E1000015B0546ED1005F00105655D03F8015BEA
:103E20000546AD1005F00105655D03F8015B05462B
:103E30006D1005F00105655D03F8015B00F0010000
:103E4000205C03F8010B1046421E0028C3D131BC90
:103E5000704700004F56207265736574206572725A
:103E60006F7200004F5637373235204E47202020E2
:103E70002020202020202020000000004F5637372F
:103E80003235204F4B2020202020202020202020B1
:103E9000000000004F5637373235207265616420CC
:103EA00076657273696F6E206572726F72000000C2
:103EB0004F5620777269746520726567202D204FF8
:103EC0004B0000000001FEE710B5794C206840F47B
:103ED00080202060206840F400202060FFF76AFF07
:103EE000606920F4802060612069C0F38040002870
:103EF00012D0606940F480206061206820F4802046
:103F00002060FFF757FF206820F400202060206920
:103F1000C0F38040002805D0606940F480206061D3
:103F2000002010BD012010BD10B5614C206820F4A8
:103F300000202060206820F480202060FFF73AFFF6
:103F4000206840F400202060FFF734FF206840F430
:103F500080202060BDE81040FFF72CBF10B5544C06
:103F6000206820F400202060FFF724FF206820F460
:103F700080202060FFF71EFF206840F400202060B2
:103F8000FFF718FF206820F400202060BDE81040F3
:103F9000FFF710BF10B5464C206820F400202060C9
:103FA000FFF708FF206840F480202060FFF702FF41
:103FB000206840F400202060FFF7FCFE206820F419
:103FC00000202060BDE81040FFF7F4BE10B5384C6B
:103FD000206820F400202060606920F48020606167
:103FE000FFF7E8FE206840F400202060FFF7E2FEC3
:103FF0002069C0F380400028606940F4802060613F
:10400000206820F40020206001D0002010BD012095
:1040100010BD70B504460825254E2846451EC0B281
:10402000002817D02006306803D420F480203060A8
:1040300002E040F4802030606400FFF7BBFE30688F
:1040400040F400203060FFF7B5FE306820F4002017
:104050003060E2E770BD70B508250026144C606939
:1040600020F48020606113E07600206820F40020B6
:104070002060FFF79FFE206840F400202060FFF7DB
:1040800099FE2069C0F38040002801D046F0010667
:104090002846451EC0B20028E6D1606940F4802061
:1040A0006061206820F400202060F6B2304670BDC8
:1040B00040F00F4070B504460D46002629462046C4
:1040C00000F00AF8002805D1761CF6B2142EF5D1BE
:1040D000002070BD012070BD38B504460D46FFF7C5
:1040E000F3FE002801D1002032BD4220FFF791FFEE
:1040F000FFF76CFF002803D1FFF716FF002032BD49
:104100002046C0B2FFF785FFFFF760FF2846FFF7A4
:1041100080FFFFF75BFFFFF707FF012032BDF8B517
:1041200004460D461646002732462946204600F032
:104130000AF8002805D17F1CFFB21E2FF4D1002001
:10414000F2BD0120F2BD70B504460D461646FFF7DC
:10415000BBFE002811D04220FFF75BFFFFF736FFC0
:10416000002813D03046FFF754FFFFF72FFFFFF76B
:10417000DBFEFFF7A9FE002801D1002070BD43201F
:10418000FFF747FFFFF722FF002810D1FFF7CCFE13
:10419000002070BDFFF7E2FE07E0FFF75CFF207034
:1041A000ADB2012DF6D1FFF7F5FE641C6D1E284659
:1041B00080B20028F1D1FFF7B7FE012070BDFEE705
:1041C00010B5734C0023012208212046FCF79FFE06
:1041D0000023012209212046FCF799FE6D480021A9
:1041E00001704170BDE8104000F01AB910B501210E
:1041F0006820FCF7CAFE01216920FCF7C6FE0021F9
:104200006820FCF7C2FE00240EE00021022000F02E
:1042100032F96149085500216920FCF7B6FE0121F9
:104220006920FCF7B2FE641C802CEEDB00216920C3
:10423000BDE81040FCF7A9BE2DE9F041A0B0002474
:1042400068460FF25C11802200F038F9514A20468E
:1042500010700BE0D178504B1B5C994205D211785D
:104260006B465854491C11700419401C7F28F1DD1D
:1042700013781E460025214645E0474F17F804C035
:104280007F1C3F5DACEB070CBCF1080F37DB424FE6
:1042900017F804C07F1E3C5DACEB040CBCF1080FAA
:1042A0002FDA2CE0671CEC46AC449CF801C0BC45FE
:1042B00007D1EE46AE441EF801ECA4F10108C64554
:1042C0001FD0BC4507D1EE46AE441EF801ECA4F168
:1042D0000108C645DBD1BC45CFD06F462F4417F847
:1042E000017CA4F1010C6745C7D12B4F17F804C01E
:1042F0007F1C3C5DACEB040CBCF1080F01DA761EB0
:10430000091A6D1CEDB29D423DDA6846405D0028F9
:104310000CD16846284440780128F2D01E48047821
:104320004078241A082CECDA761EEAE704467F2C43
:10433000B8D16846284410F8010C7E28E1D017480F
:1043400044780078241A082CDBDA761E7F39D8E707
:10435000114B6C46245C1B5D94789C4200D2937098
:10436000401CC0B213789842F2DB792B04DB0020AA
:104370001070FF20507003E089B291FBF3F0507091
:1043800020B0BDE8F081167000209070EAE70000D0
:10439000C0F00F40240400202C040020AA040020B8
:1043A000FF0000000000000000000000000000000E
:1043B00000000000000000000000000000000000FD
:1043C00000000000000000000000000000000000ED
:1043D00000000000000000000000000000000000DD
:1043E00000000000000000000000000000000000CD
:1043F00000000000000000000000000000000000BD
:1044000000000000000000000000000000000000AC
:10441000000000000000000000000000000000009C
:104420001C48416A41F000614162016821F0C0010D
:10443000016001680160704781B0174A890001F08E
:104440000C0141F0500191600421D16001460C380B
:10445000042805D20839D06840F01000D06003E08D
:10446000D06820F01000D06001F01F0141F0400141
:10447000116001B0704780B5FFF7DEFF064908689C
:104480000006FCD508690A6822F080020A6080B242
:1044900002BD00001880044000B0034062B38B07E7
:1044A00008D0521E11F8013B00F8013B00F02480B7
:1044B0008B07F6D1830740F0208000BF103A07D366
:1044C00030B4B1E83810103AA0E83810F9D230BC56
:1044D000530724BFB1E80810A0E8081044BF51F802
:1044E000043B40F8043BD20724BF31F8022B20F8EC
:1044F000022B44BF0B7803707047121F17D35B0069
:1045000009D151F8043B20F8023B1B0C121F20F884
:10451000023BF6D20BE051F8043B00F8013B1B0ACA
:1045200020F8023B1B0C121F00F8013BF3D238BFEE
:10453000121D521E24BF11F8013B00F8013BF8D8B0
:104540007047FEE710B500F011F9FBF7EDFF0FF231
:10455000142204213C20FCF775F901206A49086007
:104560006A4C02E000F09BF9206020680028F9D036
:1045700062B64FF496710020FDF716FF4FF4967166
:104580000220FDF711FFFBF7CFFF5EA204213C20C4
:10459000FCF758F94FF4E1310420FDF71DFB2068CA
:1045A000012801D1FEF731FDFDF780F8FDF708F98C
:1045B000574C217857480078002812D0002910D095
:1045C0000020207000F0B0F9FEF750F9FCF7DCFE97
:1045D00000F058FAFDF761FAFDF736FAFDF766F8D4
:1045E000E7E7002907D00020207000F09DF9FEF7D2
:1045F0003DF9FCF7C9FE484800780028D4D020785F
:104600000028D1D0002020704FF41672434944484E
:10461000FFF7D8FBFCF71AFFFDF748F800F084F924
:10462000FEF724F9FDF7CCF8E5E738B53D48016819
:1046300041F0010101603C4C2078002815D13B4D30
:104640002868FCF71FFD3A4A3A4BFCF73FFDFCF7A0
:10465000F9FD00EE100A85ED000A3748D0ED000A9A
:1046600080EE800A354880ED000A354D2878401CE0
:10467000287034490968C0B2814206DA00202870E7
:10468000FEF780F80020304908603049087800289B
:1046900007D02F4A1068401E106002D10020087019
:1046A00020706878401C6870C0B2012801D1FDF705
:1046B000CDFF6878012801DD00206870224801687C
:1046C000491C0160FEF7ADF822480078012806D1A8
:1046D0002148C1898089BDE83440FEF7EABA31BD7E
:1046E00010B51E48016841F0010101601C4C2068B2
:1046F000401C2060032803DBFFF778FD00202060CA
:1047000010BD0000476F00002805002014010020A4
:104710001B1E002025010020290100203C0800204C
:10472000940A00200C710340050000207001002055
:10473000FCA9F1D24D62603F4805002040050020F1
:10474000161E00200000002038050020191E002041
:10475000740100202B010020AC0400201C710340D8
:1047600028040020576169740000000080B504200F
:1047700000F0A8F972B6FBF7F1FEFBF7D5FE00F0EA
:1047800095FAFDF747FE00F055F800F028F80221F1
:10479000002000F0D0FA0521012000F0CCFA3C21E5
:1047A000022000F0C8FA3C21032000F0C4FAFEF712
:1047B0001AFCFDF7F0FDFDF7CFFD00201149086060
:1047C0001148124901601248FDF766FD1148FDF7D6
:1047D00063FDFFF715FABDE80140FFF7F1BC0E4895
:1047E00001210180002181800C48018001810C4859
:1047F0000C4901600C480D49016032200C490870D9
:10480000704700002C05002020050020CDCC0C4076
:104810000090034000A00340AC0400205405002099
:104820004C0500200AD7A33B500500206F12033A25
:10483000181E002010B5394C00231A460C212046C2
:10484000FCF765FB00231A460D212046FCF75FFBB1
:1048500000231A460E212046FCF759FB00231A4676
:104860000F212046FCF753FB2D4C00231A4611461E
:104870002046FCF74CFB00231A4601212046FCF79A
:1048800046FB00231A4602212046FCF740FB00238A
:104890001A4603212046BDE81040FCF738BB10B58E
:1048A000204C4C20FCF787FB20604D20FCF783FB5D
:1048B00060604E20FCF77FFBA0604F20FCF77BFB85
:1048C000E0606020FCF777FB20616120FCF773FB60
:1048D00060616220FCF76FFBA0616320FCF76BFB5B
:1048E000E0612068012816D16068012813D1A06812
:1048F000012810D1E06801280DD1206901280AD1D2
:104900006069012807D1A069012804D1E069012864
:1049100001D1002010BD012010BD000080F00F402B
:10492000C0F00F40BC050020F8B500252A4614460B
:104930004F4E10463082337801E05B1CDBB270785A
:10494000401E83424BDA0027BC461AE0084640FA74
:104950000EF0C0070CD4308A002800D1F370012774
:10496000401C308205EBCC05ED1DA5EB0E051C1996
:10497000AEF1010E0FFA8EFEBEF1000FE6D50CF17E
:10498000010CBCF10A0F1ADA3A4803EB83010CEB75
:104990004101415C00290DD1308A002800D1F3701B
:1049A0000127083030824FEA8C101C30451904EB87
:1049B000C304E4E7FF29E2D04FF0070EDCE7308ABA
:1049C000002807D0002F05D11046C0B2002800D122
:1049D0003371521C1046B178C0B28842ADD3308AD0
:1049E0007082FFF729FCFFF75AFF23490860308ADD
:1049F0000146224A1268914203DB214A12688A4228
:104A000006DA00217181F1703171F181F180F2BD1E
:104A1000B6F90A20B28102EB42028A1813465B10F3
:104A200002EB937292107281B5FBF0F23281B6F90B
:104A30000620B6F90830002A05DDD21802EBD27242
:104A40005210F28000E0F38094FBF1F1B6F90E20F1
:104A5000002A0ADD02EB420202FA81F10A465210F4
:104A600001EB92718910F181F2BDF181F2BD00007C
:104A7000100400203C08002014010020EC0000205D
:104A8000F000002010B500240120FCF779FCFE2086
:104A9000FCF776FC04E00949085CFCF771FC641C37
:104AA000A4B22046B0F5167FF5DBFE20FCF768FCCB
:104AB0000120BDE81040FCF763BC00BFE405002006
:104AC00001707047FEB50646424FA2213846FFF7F7
:104AD000F7FF0FF2C012D2E90001CDE9000100F0AA
:104AE00083F86946384600F08AF93B4F386840F44D
:104AF00078503860300030D0761E042E27D8DFE89A
:104B000006F0030A11181F0004240E250FF2F4000A
:104B100000F022FA21E0042414250FF2001000F026
:104B20001BFA1AE0042418250FF2081000F014FAFA
:104B300013E004241F250FF2141000F00DFA0CE00E
:104B4000032418250FF21C1000F006FA05E00324D8
:104B50001C250FF2281000F0FFF92946C9B21031C8
:104B6000322010FB01F11D4A01EBD17149102046A2
:104B7000C0B2401C91FBF0F0106040085060184833
:104B80008021017004F00704047116490B680C6859
:104B900044F470240C6012681E24B2FBF4F2120478
:104BA00002F4702242F09872FA600B6005F01F0563
:104BB00045F04005457181798906FCD58179490622
:104BC000FCD5002101708179C1F381010329FAD15B
:104BD000F7BD000000E0074038800440DC050020FD
:104BE0000040064000F00140F8B568460FF2AC0105
:104BF0001022FFF763FC69460020FEF707FF05B0AF
:104C000000BD00008000010000000600000000035D
:104C10000800010000030001010500008000010000
:104C20000000030000000004140001000003000164
:104C300002070000800001000000030000000004E3
:104C400018000100000300010207000080000100BD
:104C500000000300000000041F0001000003000129
:104C600003090000800001000000030000000003B1
:104C7000180001000003000103090000800001008A
:104C800000000600000000031C00010000030001FA
:104C900003090000000100000000000080F0FA029B
:104CA00000000000000200000000000010B51C4CD5
:104CB000012300220D212046FCF729F901230022BF
:104CC0000E212046FCF723F9012300220A21204669
:104CD000FCF71DF9012300220B212046FCF717F9F0
:104CE000012300220C212046FCF711F901230022A8
:104CF00004212046FCF70BF9012300220521204660
:104D0000FCF705F90123002206212046FCF7FFF8F5
:104D10000123002207212046BDE81040FCF7F7B828
:104D2000C0F00F40012200F01F018A4019494009DC
:104D300041F820207047184A136843F400031360B9
:104D4000164A13689B089B001360154A02EB001378
:104D500047F2BF2251431960D96841F00101D9607F
:104D6000996841F003019960303040B2DAE70D48AC
:104D7000016841F00101016070470B48016841F092
:104D80000101016009480178012902D10078FEF78C
:104D90003CB9704700E100E03C80044000700340F3
:104DA000007103402C7103403C710340081E002039
:104DB00010B504460021621C53480243117020467E
:104DC00000F0A8F80128FAD110BD10B50446402122
:104DD000621C4D4802431170204600F09BF80428E5
:104DE000FAD110BD10B504466021621C464802434A
:104DF0001170204600F08EF88028FAD110BD38B529
:104E000004460D4600F086F8012804D0042809D095
:104E100080280FD01CE02878C00619D52046FFF75F
:104E2000D4FF15E0288810F4837F11D02046FFF7C7
:104E3000BFFF0DE0288840F20111084208D120464A
:104E4000FFF7B6FF2878C00602D52046FFF7BDFF62
:104E5000B5F9000001280FD0022819D0042820D06D
:104E600008280DD0102813D020281AD0802818D058
:104E7000B0F5807F08D044E02046FFF799FF40E07E
:104E80002046FFF7A2FF3CE02046FFF7ABFF38E0EB
:104E90001E48016821F0040101606078009030BF75
:104EA0002FE0A01C69798901194A02431170A97980
:104EB000C90040F08C521170E978490140F09452D9
:104EC00011702979090140F090521170B5F9001064
:104ED000042901D1002108E0202901D1022104E0A8
:104EE0000421AA7840F081500270601C40F081508B
:104EF00001700648016841F004010160607800908B
:104F000030BF002032BD00000000901210ED00E024
:104F100000001013C078704741F244010144DFF8EB
:104F2000A40001430868C0B270478904DFF89820E4
:104F300010430160704738B50446DFF8945020797B
:104F40000090E378A2786178284600F06DF8217827
:104F50002846BDE83440E8E71CB5040008D1CE225D
:104F60000FF27C010FF27000FEF704FEAFF3008039
:104F700007200090034601220021DFF8540000F0D2
:104F800053F82046FEF7AEFC04F11100FFF7D3FF03
:104F900004F10E010020FEF786FD00F006F8DFF8B0
:104FA00034100860002016BD000010B50748FEF759
:104FB000F3FB04460648FFF7AFFF401CB4FBF0F0DC
:104FC00010BD00000000301E000010190040064017
:104FD00000700440940200207465737400000000A7
:104FE000433A5C55736572735C6C656E6F766F5C8B
:104FF0004465736B746F705C4B5635387968795CB7
:105000004B5635385C4C51757365725C73797374AB
:10501000656D5C66736C5F636C6F636B5F4D4B5665
:1050200035384632342E630070B4039C41F2440597
:105030004659B6B246EA0176120602F07062324371
:105040001B0503F470031A43240404F47024224360
:10505000425170BC70470000BFF34F8FBFF36F8F9A
:105060000020244908602448016841F400310160AF
:10507000BFF34F8FBFF36F8F704730B41E490020CE
:105080000867BFF34F8FCA6EC2F34E331B4DC2F396
:10509000C90443F6E07000EA431040EA84702860D7
:1050A0002046441E0028F4D11846431E0028EED1A5
:1050B000BFF34F8F086840F480300860BFF34F8F14
:1050C000BFF36F8F30BC704780B50D48016841F465
:1050D000700101600B484CF22051C1814DF628113E
:1050E000C1814FF4E9710180FFF7B6FFBDE80140CF
:1050F000C3E7000050EF00E014ED00E060EF00E0D7
:1051000088ED00E0002005402DE9FC4D016800F12C
:105110000805490805EBC102019200F10802406848
:1051200000F0010A02EBC108400808EBC00B0020A8
:105130000021019A95422FD02A68AE186A6832443D
:1051400000920835009A9642F3D016F9014B009A66
:10515000964205D12A68AE186A6832440092083532
:1051600016F8017B884210D1D84508BFFEF71AFD1A
:10517000D8F80000D8F80410BAF1000F18BF48445E
:105180000144884208F10808EED0002C00F8017BA9
:1051900005D5641CE6D1D5E75846BDE8F68D641EFA
:1051A000D5D5CFE70D4802680D480068800713D5B4
:1051B000002A11D0D2E90401401C61F1FF31C2E99B
:1051C00004019169002907D0506A002802D001200B
:1051D00010627047D069084770470000B40500208E
:1051E00010E000E019E050F8042BD30744BFA9F108
:1051F00001039A18091F0023042942F8043BF9D23D
:105200005FEA817C134604D54FF0000CA2F800C081
:105210009B1CC90744BF0021197050F8041B0029CA
:10522000E1D170470848016841F010010160074969
:105230000878002807D1012008704FF4167204493D
:105240000448FFF72BB97047248000401B1E002044
:10525000E40500203C0800200020074905E0074A3B
:1052600052F8202041F82020401C054AB0EB920F54
:10527000F5D30448016070470000001000000010E2
:105280000000000008ED00E010B50749794418312E
:10529000064C7C44163404E00A68081D1144884713
:1052A0000146A142F8D110BD2C00000054000000BE
:1052B0004EF68851CEF20001086840F47000086094
:1052C000BFF34F8FBFF36F8F4FF00070E1EE100A06
:1052D0007047000011FFFFFFF419000028040020B0
:1052E0000000000025FEFFFF020000000200000099
:1052F00084000000A103000000000020280400003A
:1053000000F00DF8002801D0FFF7BEFFAFF30080DA
:105310000020AFF30080FFF715F900F002F801203C
:10532000704700F001B8000007463846FEF73EFC23
:10533000FBE7000072B6034880470348804762B627
:1053400002480047C9500010595200106153001024
:1053500080B5FFF727FFBFF34F8FBFF36F8F01BDFE
:10536000AFF30080FFF7A4FFFFF7CAFF005006402D
:10537000FFF7FEBF0005FB002A22062E04000007EF
:105380000008000A000C000E000F001000110013AE
:10539000001500160018001A001C001E001F002037
:1053A00000210023FD0024070008000A000C000E65
:1053B000000F001000110013001500160018001A4D
:1053C000001C001E001F002000210023FD002401FE
:1053D00000020005000600070009000A000C000E8C
:1053E000001000110012001400150016001700181C
:1053F0000019001AFD0054FCFFFAFFF6FFF1FFEC64
:10540000FFE7FFE0FFD8FFD8FFCCFFCEFFD3FFD3ED
:10541000FFD2FFD1FFCFFFCDFFC9FFC6FF0000FCC9
:10542000FFFAFFF6FFF1FFECFFE7FFE0FFD8FFD840
:10543000FFCCFFCEFFD3FFD3FFD2FFD1FFCFFFCDF5
:10544000FFC9FFC6FF000028050000FAFA0000416E
:10545000FD00093F0000C0409A99993E0AFD0004F2
:105460005802000028FD000040D50003070000019D
:10547000FC000002B5002017B7D1386F12833A0A3A
:10548000D7233CCDCCCC3D0000803F0000204153D1
:1054900065745F5350454544FD000646555A5A59B8
:1054A0002E50FB000646555A5A592E44FB003550E3
:1054B00049445F53504545442E50005049445F5382
:1054C000504545442E49005049445F4449524543A4
:1054D0002E50005049445F44495245432E44000039
:1054E000093D000080FD007EF00F4040F00F40803D
:1054F000F00F40C0F00F4000F10F4000900440005A
:10550000A0044000B0044000C0044000D004400D9E
:10551000C1110009030CD01240173F185019031A8B
:10552000783200A00A63E0ACFF650C6600670029D2
:10553000142C1E2A007E0C7F16802A814E826183E5
:105540006F847B8586868E879788A489AF8AC58B72
:10555000D78CE88D204A00491347084B144C174656
:105560000522992303A6040C9B389C0AAB069E11C6
:105570009F02000031FC007EA0064000B006400003
:10558000C0064000D0064000A00E4000B00E400013
:10559000004001DFF800F0D13B00102DE9F041069A
:1055A0009D2C0001D1012608E0012C01D102260426
:1055B000E0022C01D1042600E01026089C079FDFA2
:1055C000F82CC1DCF808E04EF4807ECCF808E0DC72
:1055D000F804E04EF0020ECCF804E0DFF814E10E1F
:1055E000EB401ECEF80010CEF810200021AEF804DB
:1055F00010AEF8146029027E01F4E06105F00705A1
:105600000D43AEF806503946C1F30E01AEF8161040
:10561000C7F30807AEF81E7037490A6822F0800207
:105620000A60CEF808600022CEF80C20CEF81820D0
:105630004CF20A02AEF81C201A46520902F131055A
:1056400045F080052D4E3554DCF800504FF40076BF
:1056500006FA02F22A43CCF800201F463D466D119F
:10566000274E56F825C00122DCF814E003F01F088D
:1056700002FA08F82EEA087E0ECCF814E0DFF8846F
:10568000C05CF825C007F01F0704F0030EA409440E
:10569000EA0E4444F480744CF827401C46641EA46F
:1056A00041E443E40F56F825305D6902FA04F4251D
:1056B000EA04045C61CB6882401A43CA6040B2BD10
:1056C000E8F041FFF767BF0B4B03EB401319611183
:1056D00046C1F30E01D982C2F30802DA830A490AED
:1056E00068012383401A430A6040B2FFF753BF00AA
:1056F00000388004400090180040008000400010F6
:105700000240EC010020000200200C800040003C20
:0557100003EC0000287D
:040000051000536133
:00000001FF
